{"abi":[{"inputs":[{"internalType":"address","name":"_maticAddress","type":"address"},{"internalType":"address","name":"_maticPriceFeed","type":"address"},{"internalType":"address","name":"_vrfCoordinator","type":"address"},{"internalType":"address","name":"_link","type":"address"},{"internalType":"uint256","name":"_fee","type":"uint256"},{"internalType":"bytes32","name":"_keyhash","type":"bytes32"}],"stateMutability":"nonpayable","type":"constructor","name":"constructor"},{"anonymous":false,"inputs":[{"indexed":true,"internalType":"address","name":"previousOwner","type":"address"},{"indexed":true,"internalType":"address","name":"newOwner","type":"address"}],"name":"OwnershipTransferred","type":"event"},{"anonymous":false,"inputs":[{"indexed":false,"internalType":"bytes32","name":"requestId","type":"bytes32"}],"name":"RequestRandomness","type":"event"},{"inputs":[],"name":"IncreasePrizePool","outputs":[],"stateMutability":"payable","type":"function"},{"inputs":[],"name":"SPINNING_THRESHOLD","outputs":[{"internalType":"uint256","name":"","type":"uint256"}],"stateMutability":"view","type":"function"},{"inputs":[{"internalType":"address","name":"_token","type":"address"}],"name":"addAllowedTokens","outputs":[],"stateMutability":"nonpayable","type":"function"},{"inputs":[{"internalType":"uint256","name":"","type":"uint256"}],"name":"allowedTokens","outputs":[{"internalType":"address","name":"","type":"address"}],"stateMutability":"view","type":"function"},{"inputs":[{"internalType":"address","name":"_token","type":"address"},{"internalType":"uint256","name":"_amount","type":"uint256"}],"name":"approvePlayerAllowancePerSpin","outputs":[],"stateMutability":"nonpayable","type":"function"},{"inputs":[{"internalType":"address","name":"_token","type":"address"}],"name":"calculateBetLimit","outputs":[{"internalType":"uint256","name":"","type":"uint256"}],"stateMutability":"view","type":"function"},{"inputs":[{"internalType":"uint256","name":"_amount","type":"uint256"}],"name":"calculatePlayerReward","outputs":[{"internalType":"uint256","name":"reward","type":"uint256"}],"stateMutability":"nonpayable","type":"function"},{"inputs":[{"internalType":"address","name":"_token","type":"address"},{"internalType":"address","name":"_playerAddress","type":"address"},{"internalType":"address","name":"_charityAddress","type":"address"},{"internalType":"uint256","name":"_amount","type":"uint256"}],"name":"donate","outputs":[],"stateMutability":"nonpayable","type":"function"},{"inputs":[],"name":"fee","outputs":[{"internalType":"uint256","name":"","type":"uint256"}],"stateMutability":"view","type":"function"},{"inputs":[{"internalType":"address","name":"_token","type":"address"}],"name":"getTokenValue","outputs":[{"internalType":"uint256","name":"","type":"uint256"},{"internalType":"uint256","name":"","type":"uint256"}],"stateMutability":"view","type":"function"},{"inputs":[],"name":"keyhash","outputs":[{"internalType":"bytes32","name":"","type":"bytes32"}],"stateMutability":"view","type":"function"},{"inputs":[],"name":"link","outputs":[{"internalType":"address","name":"","type":"address"}],"stateMutability":"view","type":"function"},{"inputs":[{"internalType":"address","name":"_token","type":"address"},{"internalType":"uint256","name":"_amount","type":"uint256"}],"name":"makeBet","outputs":[],"stateMutability":"payable","type":"function"},{"inputs":[],"name":"owner","outputs":[{"internalType":"address","name":"","type":"address"}],"stateMutability":"view","type":"function"},{"inputs":[{"internalType":"address","name":"_token","type":"address"},{"internalType":"address","name":"_playerAddress","type":"address"},{"internalType":"uint256","name":"_amount","type":"uint256"}],"name":"payPlayer","outputs":[],"stateMutability":"nonpayable","type":"function"},{"inputs":[{"internalType":"address","name":"","type":"address"}],"name":"playerAllowanceMtc","outputs":[{"internalType":"uint256","name":"","type":"uint256"}],"stateMutability":"view","type":"function"},{"inputs":[{"internalType":"address","name":"","type":"address"}],"name":"playerAllowanceUsd","outputs":[{"internalType":"uint256","name":"","type":"uint256"}],"stateMutability":"view","type":"function"},{"inputs":[{"internalType":"address","name":"","type":"address"}],"name":"playerTotalAmountSpent","outputs":[{"internalType":"uint256","name":"","type":"uint256"}],"stateMutability":"view","type":"function"},{"inputs":[],"name":"playerWins","outputs":[{"internalType":"bool","name":"","type":"bool"}],"stateMutability":"view","type":"function"},{"inputs":[],"name":"prizePool","outputs":[{"internalType":"address","name":"","type":"address"}],"stateMutability":"view","type":"function"},{"inputs":[],"name":"randomness","outputs":[{"internalType":"uint256","name":"","type":"uint256"}],"stateMutability":"view","type":"function"},{"inputs":[{"internalType":"bytes32","name":"requestId","type":"bytes32"},{"internalType":"uint256","name":"randomness","type":"uint256"}],"name":"rawFulfillRandomness","outputs":[],"stateMutability":"nonpayable","type":"function"},{"inputs":[],"name":"renounceOwnership","outputs":[],"stateMutability":"nonpayable","type":"function"},{"inputs":[{"internalType":"address","name":"_token","type":"address"},{"internalType":"address","name":"_priceFeed","type":"address"}],"name":"setPriceFeedContract","outputs":[],"stateMutability":"nonpayable","type":"function"},{"inputs":[],"name":"spinTheWheel","outputs":[],"stateMutability":"nonpayable","type":"function"},{"inputs":[{"internalType":"address","name":"_token","type":"address"}],"name":"tokenIsAllowed","outputs":[{"internalType":"bool","name":"","type":"bool"}],"stateMutability":"nonpayable","type":"function"},{"inputs":[{"internalType":"address","name":"","type":"address"}],"name":"tokenPriceFeedMapping","outputs":[{"internalType":"address","name":"","type":"address"}],"stateMutability":"view","type":"function"},{"inputs":[{"internalType":"address","name":"newOwner","type":"address"}],"name":"transferOwnership","outputs":[],"stateMutability":"nonpayable","type":"function"},{"inputs":[],"name":"wheel_approval","outputs":[{"internalType":"bool","name":"","type":"bool"}],"stateMutability":"view","type":"function"},{"stateMutability":"payable","type":"receive"}],"bytecode":"60c06040526032600955600d805461ffff191690553480156200002157600080fd5b50604051620016af380380620016af83398101604081905262000044916200015b565b83836200005133620000ee565b6001600160a01b0391821660a0528116608052600a92909255600c55600e8054600181019091557fbb7b4a454dc3493923482f07822329ed19e8244eff582cc204f8554c3620c3fd0180549582166001600160a01b031996871681179091556000908152600560205260409020805494821694861694909417909355600f80548516301790556010805491909316931692909217905550620001ca565b600080546001600160a01b038381166001600160a01b0319831681178455604051919092169283917f8be0079c531659141344cd1fd0a4f28419497f9722a3daafe3b4186f6b6457e09190a35050565b80516001600160a01b03811681146200015657600080fd5b919050565b60008060008060008060c087890312156200017557600080fd5b62000180876200013e565b955062000190602088016200013e565b9450620001a0604088016200013e565b9350620001b0606088016200013e565b92506080870151915060a087015190509295509295509295565b60805160a0516114b8620001f760003960008181610a8b0152610e5201526000610e2301526114b86000f3fe6080604052600436106101c65760003560e01c80637f318dc2116100f7578063cebf73af11610095578063f1c5d6c211610064578063f1c5d6c2146104ed578063f2fde38b14610522578063f64ff4a514610542578063ffea2fd71461056157600080fd5b8063cebf73af1461048c578063d02bf162146104a2578063dd5b8467146104b7578063ddca3f43146104d757600080fd5b80638d07a8c6116100d15780638d07a8c61461040e5780638da5cb5b1461042e57806394985ddd1461044c578063c9407a4a1461046c57600080fd5b80637f318dc214610232578063877dd39d146103cd5780638afcc929146103ed57600080fd5b80634b9e6afe1161016457806369ebe78e1161013e57806369ebe78e14610362578063715018a614610378578063719ce73e1461038d57806376abf9ea146103ad57600080fd5b80634b9e6afe146102eb5780635e5f2e26146103155780635f93e0221461033557600080fd5b806327927b3e116101a057806327927b3e1461026c57806336013189146102a2578063388a6090146102b85780633b50261f146102d857600080fd5b8063014a832b146101d2578063171e44ea146102125780631c4695f41461023457600080fd5b366101cd57005b600080fd5b3480156101de57600080fd5b506101ff6101ed366004611061565b60026020526000908152604090205481565b6040519081526020015b60405180910390f35b34801561021e57600080fd5b5061023261022d366004611061565b61058e565b005b34801561024057600080fd5b50601054610254906001600160a01b031681565b6040516001600160a01b039091168152602001610209565b34801561027857600080fd5b50610254610287366004611061565b6005602052600090815260409020546001600160a01b031681565b3480156102ae57600080fd5b506101ff600b5481565b3480156102c457600080fd5b506101ff6102d3366004611083565b610613565b6102326102e636600461109c565b610643565b3480156102f757600080fd5b50600d546103059060ff1681565b6040519015158152602001610209565b34801561032157600080fd5b50610254610330366004611083565b61083e565b34801561034157600080fd5b506101ff610350366004611061565b60046020526000908152604090205481565b34801561036e57600080fd5b506101ff600c5481565b34801561038457600080fd5b50610232610868565b34801561039957600080fd5b50600f54610254906001600160a01b031681565b3480156103b957600080fd5b506102326103c83660046110c6565b61089e565b3480156103d957600080fd5b506102326103e8366004611102565b6108d3565b3480156103f957600080fd5b506101ff610408366004611061565b50606490565b34801561041a57600080fd5b5061023261042936600461109c565b61092b565b34801561043a57600080fd5b506000546001600160a01b0316610254565b34801561045857600080fd5b50610232610467366004611135565b610a80565b34801561047857600080fd5b50610232610487366004611157565b610b06565b34801561049857600080fd5b506101ff60095481565b3480156104ae57600080fd5b50610232610bb7565b3480156104c357600080fd5b506103056104d2366004611061565b610c19565b3480156104e357600080fd5b506101ff600a5481565b3480156104f957600080fd5b5061050d610508366004611061565b610c83565b60408051928352602083019190915201610209565b34801561052e57600080fd5b5061023261053d366004611061565b610d84565b34801561054e57600080fd5b50600d5461030590610100900460ff1681565b34801561056d57600080fd5b506101ff61057c366004611061565b60036020526000908152604090205481565b6000546001600160a01b031633146105c15760405162461bcd60e51b81526004016105b8906111a2565b60405180910390fd5b600e80546001810182556000919091527fbb7b4a454dc3493923482f07822329ed19e8244eff582cc204f8554c3620c3fd0180546001600160a01b0319166001600160a01b0392909216919091179055565b600080546001600160a01b0316331461063e5760405162461bcd60e51b81526004016105b8906111a2565b919050565b336000908152600360205260409020546064826106a25760405162461bcd60e51b815260206004820152601e60248201527f596f757220626574206d75737420626520686967686572207468616e2030000060448201526064016105b8565b80831061073d5760405162461bcd60e51b815260206004820152605760248201527f596f7572206265742072657761726420636f756c64206578636565642074686560448201527f20746f74616c207072697a652c20706c6561736520626574206163636f72646960648201527f6e6720746f207468652062657474696e67206c696d6974000000000000000000608482015260a4016105b8565b818311156107ab5760405162461bcd60e51b815260206004820152603560248201527f596f752063616e6e6f742062657420686967686572207468616e20796f75722060448201527462657420616c6c6f77616e636520616d6f756e742160581b60648201526084016105b8565b60006107bb600c54600a54610e1f565b90507fe7e9d173875e49599c9dc06ea20fd1d8878525700b2711462f8379cccdc637eb816040516107ee91815260200190565b60405180910390a1336000908152600260205260409020546108119085906111ed565b336000908152600260205260409020819055600954141561083757600d805460ff191690555b5050505050565b600e818154811061084e57600080fd5b6000918252602090912001546001600160a01b0316905081565b6000546001600160a01b031633146108925760405162461bcd60e51b81526004016105b8906111a2565b61089c6000610fa4565b565b6000546001600160a01b031633146108c85760405162461bcd60e51b81526004016105b8906111a2565b600061083782610613565b6000546001600160a01b031633146108fd5760405162461bcd60e51b81526004016105b8906111a2565b6001600160a01b03918216600090815260056020526040902080546001600160a01b03191691909216179055565b61093482610c19565b6109b05760405162461bcd60e51b815260206004820152604160248201527f5468697320746f6b656e206973206e6f7420737570706f727465642c20706c6560448201527f61736520757365204d4154494320746f20706c61636520796f757220626574736064820152602160f81b608482015260a4016105b8565b6000806109bc84610c83565b90925090506109cc81600a6112e9565b6109d683856112f5565b6109e09190611314565b336000908152600360209081526040808320849055600693909355600490819052908290208590556007859055905163095ea7b360e01b81523091810191909152602481018490526001600160a01b0385169063095ea7b3906044015b6020604051808303816000875af1158015610a5c573d6000803e3d6000fd5b505050506040513d601f19601f820116820180604052508101906108379190611336565b336001600160a01b037f00000000000000000000000000000000000000000000000000000000000000001614610af85760405162461bcd60e51b815260206004820152601f60248201527f4f6e6c7920565246436f6f7264696e61746f722063616e2066756c66696c6c0060448201526064016105b8565b610b028282610ff4565b5050565b610b0f84610c19565b610b7a5760405162461bcd60e51b815260206004820152603660248201527f5468697320746f6b656e206973206e6f7420737570706f727465642c20706c6560448201527561736520646f6e617465207573696e67204d4154494360501b60648201526084016105b8565b6040516323b872dd60e01b81526001600160a01b0384811660048301528381166024830152604482018390528516906323b872dd90606401610a3d565b600d5460ff161515600114610bcb57600080fd5b6000610bdb600c54600a54610e1f565b90507fe7e9d173875e49599c9dc06ea20fd1d8878525700b2711462f8379cccdc637eb81604051610c0e91815260200190565b60405180910390a150565b6000805b600e54811015610c7a57826001600160a01b0316600e8281548110610c4457610c44611358565b6000918252602090912001546001600160a01b03161415610c685750600192915050565b80610c728161136e565b915050610c1d565b50600092915050565b6001600160a01b03808216600090815260056020526040808220548151633fabe5a360e21b815291519293849391169182918491839163feaf968c9160048082019260a0929091908290030181865afa158015610ce4573d6000803e3d6000fd5b505050506040513d601f19601f82011682018060405250810190610d0891906113a3565b5050509150506000826001600160a01b031663313ce5676040518163ffffffff1660e01b8152600401602060405180830381865afa158015610d4e573d6000803e3d6000fd5b505050506040513d601f19601f82011682018060405250810190610d7291906113f3565b919760ff909216965090945050505050565b6000546001600160a01b03163314610dae5760405162461bcd60e51b81526004016105b8906111a2565b6001600160a01b038116610e135760405162461bcd60e51b815260206004820152602660248201527f4f776e61626c653a206e6577206f776e657220697320746865207a65726f206160448201526564647265737360d01b60648201526084016105b8565b610e1c81610fa4565b50565b60007f00000000000000000000000000000000000000000000000000000000000000006001600160a01b0316634000aea07f000000000000000000000000000000000000000000000000000000000000000084866000604051602001610e8f929190918252602082015260400190565b6040516020818303038152906040526040518463ffffffff1660e01b8152600401610ebc93929190611416565b6020604051808303816000875af1158015610edb573d6000803e3d6000fd5b505050506040513d601f19601f82011682018060405250810190610eff9190611336565b50600083815260016020818152604080842054815180840189905280830186905230606082015260808082018390528351808303909101815260a09091019092528151918301919091209387905290829052610f5a916111ed565b600085815260016020526040902055610f9a8482604080516020808201949094528082019290925280518083038201815260609092019052805191012090565b9150505b92915050565b600080546001600160a01b038381166001600160a01b0319831681178455604051919092169283917f8be0079c531659141344cd1fd0a4f28419497f9722a3daafe3b4186f6b6457e09190a35050565b600081116110445760405162461bcd60e51b815260206004820152601860248201527f72616e646f6d206e756d626572206e6f7420666f756e642e000000000000000060448201526064016105b8565b600b5550565b80356001600160a01b038116811461063e57600080fd5b60006020828403121561107357600080fd5b61107c8261104a565b9392505050565b60006020828403121561109557600080fd5b5035919050565b600080604083850312156110af57600080fd5b6110b88361104a565b946020939093013593505050565b6000806000606084860312156110db57600080fd5b6110e48461104a565b92506110f26020850161104a565b9150604084013590509250925092565b6000806040838503121561111557600080fd5b61111e8361104a565b915061112c6020840161104a565b90509250929050565b6000806040838503121561114857600080fd5b50508035926020909101359150565b6000806000806080858703121561116d57600080fd5b6111768561104a565b93506111846020860161104a565b92506111926040860161104a565b9396929550929360600135925050565b6020808252818101527f4f776e61626c653a2063616c6c6572206973206e6f7420746865206f776e6572604082015260600190565b634e487b7160e01b600052601160045260246000fd5b60008219821115611200576112006111d7565b500190565b600181815b80851115611240578160001904821115611226576112266111d7565b8085161561123357918102915b93841c939080029061120a565b509250929050565b60008261125757506001610f9e565b8161126457506000610f9e565b816001811461127a5760028114611284576112a0565b6001915050610f9e565b60ff841115611295576112956111d7565b50506001821b610f9e565b5060208310610133831016604e8410600b84101617156112c3575081810a610f9e565b6112cd8383611205565b80600019048211156112e1576112e16111d7565b029392505050565b600061107c8383611248565b600081600019048311821515161561130f5761130f6111d7565b500290565b60008261133157634e487b7160e01b600052601260045260246000fd5b500490565b60006020828403121561134857600080fd5b8151801515811461107c57600080fd5b634e487b7160e01b600052603260045260246000fd5b6000600019821415611382576113826111d7565b5060010190565b805169ffffffffffffffffffff8116811461063e57600080fd5b600080600080600060a086880312156113bb57600080fd5b6113c486611389565b94506020860151935060408601519250606086015191506113e760808701611389565b90509295509295909350565b60006020828403121561140557600080fd5b815160ff8116811461107c57600080fd5b60018060a01b038416815260006020848184015260606040840152835180606085015260005b818110156114585785810183015185820160800152820161143c565b8181111561146a576000608083870101525b50601f01601f1916929092016080019594505050505056fea2646970667358221220819bcab1f511ec5853a315ff83b5fbf587028a4aec626851421a65fdc26dfa9064736f6c634300080a0033","bytecodeSha1":"7bfb816bb3df57d902f004d34faaf6220daa81e1","compiler":{"evm_version":"istanbul","optimizer":{"enabled":true,"runs":200},"version":"0.8.10+commit.fc410830"},"contractName":"CharityCasino","language":"Solidity","natspec":{"kind":"dev","methods":{"owner()":{"details":"Returns the address of the current owner."},"renounceOwnership()":{"details":"Leaves the contract without owner. It will not be possible to call `onlyOwner` functions anymore. Can only be called by the current owner. NOTE: Renouncing ownership will leave the contract without an owner, thereby removing any functionality that is only available to the owner."},"transferOwnership(address)":{"details":"Transfers ownership of the contract to a new account (`newOwner`). Can only be called by the current owner."}},"version":1},"opcodes":"PUSH1 0x80 PUSH1 0x40 MSTORE PUSH1 0x4 CALLDATASIZE LT PUSH2 0x1C6 JUMPI PUSH1 0x0 CALLDATALOAD PUSH1 0xE0 SHR DUP1 PUSH4 0x7F318DC2 GT PUSH2 0xF7 JUMPI DUP1 PUSH4 0xCEBF73AF GT PUSH2 0x95 JUMPI DUP1 PUSH4 0xF1C5D6C2 GT PUSH2 0x64 JUMPI DUP1 PUSH4 0xF1C5D6C2 EQ PUSH2 0x4ED JUMPI DUP1 PUSH4 0xF2FDE38B EQ PUSH2 0x522 JUMPI DUP1 PUSH4 0xF64FF4A5 EQ PUSH2 0x542 JUMPI DUP1 PUSH4 0xFFEA2FD7 EQ PUSH2 0x561 JUMPI PUSH1 0x0 DUP1 REVERT JUMPDEST DUP1 PUSH4 0xCEBF73AF EQ PUSH2 0x48C JUMPI DUP1 PUSH4 0xD02BF162 EQ PUSH2 0x4A2 JUMPI DUP1 PUSH4 0xDD5B8467 EQ PUSH2 0x4B7 JUMPI DUP1 PUSH4 0xDDCA3F43 EQ PUSH2 0x4D7 JUMPI PUSH1 0x0 DUP1 REVERT JUMPDEST DUP1 PUSH4 0x8D07A8C6 GT PUSH2 0xD1 JUMPI DUP1 PUSH4 0x8D07A8C6 EQ PUSH2 0x40E JUMPI DUP1 PUSH4 0x8DA5CB5B EQ PUSH2 0x42E JUMPI DUP1 PUSH4 0x94985DDD EQ PUSH2 0x44C JUMPI DUP1 PUSH4 0xC9407A4A EQ PUSH2 0x46C JUMPI PUSH1 0x0 DUP1 REVERT JUMPDEST DUP1 PUSH4 0x7F318DC2 EQ PUSH2 0x232 JUMPI DUP1 PUSH4 0x877DD39D EQ PUSH2 0x3CD JUMPI DUP1 PUSH4 0x8AFCC929 EQ PUSH2 0x3ED JUMPI PUSH1 0x0 DUP1 REVERT JUMPDEST DUP1 PUSH4 0x4B9E6AFE GT PUSH2 0x164 JUMPI DUP1 PUSH4 0x69EBE78E GT PUSH2 0x13E JUMPI DUP1 PUSH4 0x69EBE78E EQ PUSH2 0x362 JUMPI DUP1 PUSH4 0x715018A6 EQ PUSH2 0x378 JUMPI DUP1 PUSH4 0x719CE73E EQ PUSH2 0x38D JUMPI DUP1 PUSH4 0x76ABF9EA EQ PUSH2 0x3AD JUMPI PUSH1 0x0 DUP1 REVERT JUMPDEST DUP1 PUSH4 0x4B9E6AFE EQ PUSH2 0x2EB JUMPI DUP1 PUSH4 0x5E5F2E26 EQ PUSH2 0x315 JUMPI DUP1 PUSH4 0x5F93E022 EQ PUSH2 0x335 JUMPI PUSH1 0x0 DUP1 REVERT JUMPDEST DUP1 PUSH4 0x27927B3E GT PUSH2 0x1A0 JUMPI DUP1 PUSH4 0x27927B3E EQ PUSH2 0x26C JUMPI DUP1 PUSH4 0x36013189 EQ PUSH2 0x2A2 JUMPI DUP1 PUSH4 0x388A6090 EQ PUSH2 0x2B8 JUMPI DUP1 PUSH4 0x3B50261F EQ PUSH2 0x2D8 JUMPI PUSH1 0x0 DUP1 REVERT JUMPDEST DUP1 PUSH4 0x14A832B EQ PUSH2 0x1D2 JUMPI DUP1 PUSH4 0x171E44EA EQ PUSH2 0x212 JUMPI DUP1 PUSH4 0x1C4695F4 EQ PUSH2 0x234 JUMPI PUSH1 0x0 DUP1 REVERT JUMPDEST CALLDATASIZE PUSH2 0x1CD JUMPI STOP JUMPDEST PUSH1 0x0 DUP1 REVERT JUMPDEST CALLVALUE DUP1 ISZERO PUSH2 0x1DE JUMPI PUSH1 0x0 DUP1 REVERT JUMPDEST POP PUSH2 0x1FF PUSH2 0x1ED CALLDATASIZE PUSH1 0x4 PUSH2 0x1061 JUMP JUMPDEST PUSH1 0x2 PUSH1 0x20 MSTORE PUSH1 0x0 SWAP1 DUP2 MSTORE PUSH1 0x40 SWAP1 KECCAK256 SLOAD DUP2 JUMP JUMPDEST PUSH1 0x40 MLOAD SWAP1 DUP2 MSTORE PUSH1 0x20 ADD JUMPDEST PUSH1 0x40 MLOAD DUP1 SWAP2 SUB SWAP1 RETURN JUMPDEST CALLVALUE DUP1 ISZERO PUSH2 0x21E JUMPI PUSH1 0x0 DUP1 REVERT JUMPDEST POP PUSH2 0x232 PUSH2 0x22D CALLDATASIZE PUSH1 0x4 PUSH2 0x1061 JUMP JUMPDEST PUSH2 0x58E JUMP JUMPDEST STOP JUMPDEST CALLVALUE DUP1 ISZERO PUSH2 0x240 JUMPI PUSH1 0x0 DUP1 REVERT JUMPDEST POP PUSH1 0x10 SLOAD PUSH2 0x254 SWAP1 PUSH1 0x1 PUSH1 0x1 PUSH1 0xA0 SHL SUB AND DUP2 JUMP JUMPDEST PUSH1 0x40 MLOAD PUSH1 0x1 PUSH1 0x1 PUSH1 0xA0 SHL SUB SWAP1 SWAP2 AND DUP2 MSTORE PUSH1 0x20 ADD PUSH2 0x209 JUMP JUMPDEST CALLVALUE DUP1 ISZERO PUSH2 0x278 JUMPI PUSH1 0x0 DUP1 REVERT JUMPDEST POP PUSH2 0x254 PUSH2 0x287 CALLDATASIZE PUSH1 0x4 PUSH2 0x1061 JUMP JUMPDEST PUSH1 0x5 PUSH1 0x20 MSTORE PUSH1 0x0 SWAP1 DUP2 MSTORE PUSH1 0x40 SWAP1 KECCAK256 SLOAD PUSH1 0x1 PUSH1 0x1 PUSH1 0xA0 SHL SUB AND DUP2 JUMP JUMPDEST CALLVALUE DUP1 ISZERO PUSH2 0x2AE JUMPI PUSH1 0x0 DUP1 REVERT JUMPDEST POP PUSH2 0x1FF PUSH1 0xB SLOAD DUP2 JUMP JUMPDEST CALLVALUE DUP1 ISZERO PUSH2 0x2C4 JUMPI PUSH1 0x0 DUP1 REVERT JUMPDEST POP PUSH2 0x1FF PUSH2 0x2D3 CALLDATASIZE PUSH1 0x4 PUSH2 0x1083 JUMP JUMPDEST PUSH2 0x613 JUMP JUMPDEST PUSH2 0x232 PUSH2 0x2E6 CALLDATASIZE PUSH1 0x4 PUSH2 0x109C JUMP JUMPDEST PUSH2 0x643 JUMP JUMPDEST CALLVALUE DUP1 ISZERO PUSH2 0x2F7 JUMPI PUSH1 0x0 DUP1 REVERT JUMPDEST POP PUSH1 0xD SLOAD PUSH2 0x305 SWAP1 PUSH1 0xFF AND DUP2 JUMP JUMPDEST PUSH1 0x40 MLOAD SWAP1 ISZERO ISZERO DUP2 MSTORE PUSH1 0x20 ADD PUSH2 0x209 JUMP JUMPDEST CALLVALUE DUP1 ISZERO PUSH2 0x321 JUMPI PUSH1 0x0 DUP1 REVERT JUMPDEST POP PUSH2 0x254 PUSH2 0x330 CALLDATASIZE PUSH1 0x4 PUSH2 0x1083 JUMP JUMPDEST PUSH2 0x83E JUMP JUMPDEST CALLVALUE DUP1 ISZERO PUSH2 0x341 JUMPI PUSH1 0x0 DUP1 REVERT JUMPDEST POP PUSH2 0x1FF PUSH2 0x350 CALLDATASIZE PUSH1 0x4 PUSH2 0x1061 JUMP JUMPDEST PUSH1 0x4 PUSH1 0x20 MSTORE PUSH1 0x0 SWAP1 DUP2 MSTORE PUSH1 0x40 SWAP1 KECCAK256 SLOAD DUP2 JUMP JUMPDEST CALLVALUE DUP1 ISZERO PUSH2 0x36E JUMPI PUSH1 0x0 DUP1 REVERT JUMPDEST POP PUSH2 0x1FF PUSH1 0xC SLOAD DUP2 JUMP JUMPDEST CALLVALUE DUP1 ISZERO PUSH2 0x384 JUMPI PUSH1 0x0 DUP1 REVERT JUMPDEST POP PUSH2 0x232 PUSH2 0x868 JUMP JUMPDEST CALLVALUE DUP1 ISZERO PUSH2 0x399 JUMPI PUSH1 0x0 DUP1 REVERT JUMPDEST POP PUSH1 0xF SLOAD PUSH2 0x254 SWAP1 PUSH1 0x1 PUSH1 0x1 PUSH1 0xA0 SHL SUB AND DUP2 JUMP JUMPDEST CALLVALUE DUP1 ISZERO PUSH2 0x3B9 JUMPI PUSH1 0x0 DUP1 REVERT JUMPDEST POP PUSH2 0x232 PUSH2 0x3C8 CALLDATASIZE PUSH1 0x4 PUSH2 0x10C6 JUMP JUMPDEST PUSH2 0x89E JUMP JUMPDEST CALLVALUE DUP1 ISZERO PUSH2 0x3D9 JUMPI PUSH1 0x0 DUP1 REVERT JUMPDEST POP PUSH2 0x232 PUSH2 0x3E8 CALLDATASIZE PUSH1 0x4 PUSH2 0x1102 JUMP JUMPDEST PUSH2 0x8D3 JUMP JUMPDEST CALLVALUE DUP1 ISZERO PUSH2 0x3F9 JUMPI PUSH1 0x0 DUP1 REVERT JUMPDEST POP PUSH2 0x1FF PUSH2 0x408 CALLDATASIZE PUSH1 0x4 PUSH2 0x1061 JUMP JUMPDEST POP PUSH1 0x64 SWAP1 JUMP JUMPDEST CALLVALUE DUP1 ISZERO PUSH2 0x41A JUMPI PUSH1 0x0 DUP1 REVERT JUMPDEST POP PUSH2 0x232 PUSH2 0x429 CALLDATASIZE PUSH1 0x4 PUSH2 0x109C JUMP JUMPDEST PUSH2 0x92B JUMP JUMPDEST CALLVALUE DUP1 ISZERO PUSH2 0x43A JUMPI PUSH1 0x0 DUP1 REVERT JUMPDEST POP PUSH1 0x0 SLOAD PUSH1 0x1 PUSH1 0x1 PUSH1 0xA0 SHL SUB AND PUSH2 0x254 JUMP JUMPDEST CALLVALUE DUP1 ISZERO PUSH2 0x458 JUMPI PUSH1 0x0 DUP1 REVERT JUMPDEST POP PUSH2 0x232 PUSH2 0x467 CALLDATASIZE PUSH1 0x4 PUSH2 0x1135 JUMP JUMPDEST PUSH2 0xA80 JUMP JUMPDEST CALLVALUE DUP1 ISZERO PUSH2 0x478 JUMPI PUSH1 0x0 DUP1 REVERT JUMPDEST POP PUSH2 0x232 PUSH2 0x487 CALLDATASIZE PUSH1 0x4 PUSH2 0x1157 JUMP JUMPDEST PUSH2 0xB06 JUMP JUMPDEST CALLVALUE DUP1 ISZERO PUSH2 0x498 JUMPI PUSH1 0x0 DUP1 REVERT JUMPDEST POP PUSH2 0x1FF PUSH1 0x9 SLOAD DUP2 JUMP JUMPDEST CALLVALUE DUP1 ISZERO PUSH2 0x4AE JUMPI PUSH1 0x0 DUP1 REVERT JUMPDEST POP PUSH2 0x232 PUSH2 0xBB7 JUMP JUMPDEST CALLVALUE DUP1 ISZERO PUSH2 0x4C3 JUMPI PUSH1 0x0 DUP1 REVERT JUMPDEST POP PUSH2 0x305 PUSH2 0x4D2 CALLDATASIZE PUSH1 0x4 PUSH2 0x1061 JUMP JUMPDEST PUSH2 0xC19 JUMP JUMPDEST CALLVALUE DUP1 ISZERO PUSH2 0x4E3 JUMPI PUSH1 0x0 DUP1 REVERT JUMPDEST POP PUSH2 0x1FF PUSH1 0xA SLOAD DUP2 JUMP JUMPDEST CALLVALUE DUP1 ISZERO PUSH2 0x4F9 JUMPI PUSH1 0x0 DUP1 REVERT JUMPDEST POP PUSH2 0x50D PUSH2 0x508 CALLDATASIZE PUSH1 0x4 PUSH2 0x1061 JUMP JUMPDEST PUSH2 0xC83 JUMP JUMPDEST PUSH1 0x40 DUP1 MLOAD SWAP3 DUP4 MSTORE PUSH1 0x20 DUP4 ADD SWAP2 SWAP1 SWAP2 MSTORE ADD PUSH2 0x209 JUMP JUMPDEST CALLVALUE DUP1 ISZERO PUSH2 0x52E JUMPI PUSH1 0x0 DUP1 REVERT JUMPDEST POP PUSH2 0x232 PUSH2 0x53D CALLDATASIZE PUSH1 0x4 PUSH2 0x1061 JUMP JUMPDEST PUSH2 0xD84 JUMP JUMPDEST CALLVALUE DUP1 ISZERO PUSH2 0x54E JUMPI PUSH1 0x0 DUP1 REVERT JUMPDEST POP PUSH1 0xD SLOAD PUSH2 0x305 SWAP1 PUSH2 0x100 SWAP1 DIV PUSH1 0xFF AND DUP2 JUMP JUMPDEST CALLVALUE DUP1 ISZERO PUSH2 0x56D JUMPI PUSH1 0x0 DUP1 REVERT JUMPDEST POP PUSH2 0x1FF PUSH2 0x57C CALLDATASIZE PUSH1 0x4 PUSH2 0x1061 JUMP JUMPDEST PUSH1 0x3 PUSH1 0x20 MSTORE PUSH1 0x0 SWAP1 DUP2 MSTORE PUSH1 0x40 SWAP1 KECCAK256 SLOAD DUP2 JUMP JUMPDEST PUSH1 0x0 SLOAD PUSH1 0x1 PUSH1 0x1 PUSH1 0xA0 SHL SUB AND CALLER EQ PUSH2 0x5C1 JUMPI PUSH1 0x40 MLOAD PUSH3 0x461BCD PUSH1 0xE5 SHL DUP2 MSTORE PUSH1 0x4 ADD PUSH2 0x5B8 SWAP1 PUSH2 0x11A2 JUMP JUMPDEST PUSH1 0x40 MLOAD DUP1 SWAP2 SUB SWAP1 REVERT JUMPDEST PUSH1 0xE DUP1 SLOAD PUSH1 0x1 DUP2 ADD DUP3 SSTORE PUSH1 0x0 SWAP2 SWAP1 SWAP2 MSTORE PUSH32 0xBB7B4A454DC3493923482F07822329ED19E8244EFF582CC204F8554C3620C3FD ADD DUP1 SLOAD PUSH1 0x1 PUSH1 0x1 PUSH1 0xA0 SHL SUB NOT AND PUSH1 0x1 PUSH1 0x1 PUSH1 0xA0 SHL SUB SWAP3 SWAP1 SWAP3 AND SWAP2 SWAP1 SWAP2 OR SWAP1 SSTORE JUMP JUMPDEST PUSH1 0x0 DUP1 SLOAD PUSH1 0x1 PUSH1 0x1 PUSH1 0xA0 SHL SUB AND CALLER EQ PUSH2 0x63E JUMPI PUSH1 0x40 MLOAD PUSH3 0x461BCD PUSH1 0xE5 SHL DUP2 MSTORE PUSH1 0x4 ADD PUSH2 0x5B8 SWAP1 PUSH2 0x11A2 JUMP JUMPDEST SWAP2 SWAP1 POP JUMP JUMPDEST CALLER PUSH1 0x0 SWAP1 DUP2 MSTORE PUSH1 0x3 PUSH1 0x20 MSTORE PUSH1 0x40 SWAP1 KECCAK256 SLOAD PUSH1 0x64 DUP3 PUSH2 0x6A2 JUMPI PUSH1 0x40 MLOAD PUSH3 0x461BCD PUSH1 0xE5 SHL DUP2 MSTORE PUSH1 0x20 PUSH1 0x4 DUP3 ADD MSTORE PUSH1 0x1E PUSH1 0x24 DUP3 ADD MSTORE PUSH32 0x596F757220626574206D75737420626520686967686572207468616E20300000 PUSH1 0x44 DUP3 ADD MSTORE PUSH1 0x64 ADD PUSH2 0x5B8 JUMP JUMPDEST DUP1 DUP4 LT PUSH2 0x73D JUMPI PUSH1 0x40 MLOAD PUSH3 0x461BCD PUSH1 0xE5 SHL DUP2 MSTORE PUSH1 0x20 PUSH1 0x4 DUP3 ADD MSTORE PUSH1 0x57 PUSH1 0x24 DUP3 ADD MSTORE PUSH32 0x596F7572206265742072657761726420636F756C642065786365656420746865 PUSH1 0x44 DUP3 ADD MSTORE PUSH32 0x20746F74616C207072697A652C20706C6561736520626574206163636F726469 PUSH1 0x64 DUP3 ADD MSTORE PUSH32 0x6E6720746F207468652062657474696E67206C696D6974000000000000000000 PUSH1 0x84 DUP3 ADD MSTORE PUSH1 0xA4 ADD PUSH2 0x5B8 JUMP JUMPDEST DUP2 DUP4 GT ISZERO PUSH2 0x7AB JUMPI PUSH1 0x40 MLOAD PUSH3 0x461BCD PUSH1 0xE5 SHL DUP2 MSTORE PUSH1 0x20 PUSH1 0x4 DUP3 ADD MSTORE PUSH1 0x35 PUSH1 0x24 DUP3 ADD MSTORE PUSH32 0x596F752063616E6E6F742062657420686967686572207468616E20796F757220 PUSH1 0x44 DUP3 ADD MSTORE PUSH21 0x62657420616C6C6F77616E636520616D6F756E7421 PUSH1 0x58 SHL PUSH1 0x64 DUP3 ADD MSTORE PUSH1 0x84 ADD PUSH2 0x5B8 JUMP JUMPDEST PUSH1 0x0 PUSH2 0x7BB PUSH1 0xC SLOAD PUSH1 0xA SLOAD PUSH2 0xE1F JUMP JUMPDEST SWAP1 POP PUSH32 0xE7E9D173875E49599C9DC06EA20FD1D8878525700B2711462F8379CCCDC637EB DUP2 PUSH1 0x40 MLOAD PUSH2 0x7EE SWAP2 DUP2 MSTORE PUSH1 0x20 ADD SWAP1 JUMP JUMPDEST PUSH1 0x40 MLOAD DUP1 SWAP2 SUB SWAP1 LOG1 CALLER PUSH1 0x0 SWAP1 DUP2 MSTORE PUSH1 0x2 PUSH1 0x20 MSTORE PUSH1 0x40 SWAP1 KECCAK256 SLOAD PUSH2 0x811 SWAP1 DUP6 SWAP1 PUSH2 0x11ED JUMP JUMPDEST CALLER PUSH1 0x0 SWAP1 DUP2 MSTORE PUSH1 0x2 PUSH1 0x20 MSTORE PUSH1 0x40 SWAP1 KECCAK256 DUP2 SWAP1 SSTORE PUSH1 0x9 SLOAD EQ ISZERO PUSH2 0x837 JUMPI PUSH1 0xD DUP1 SLOAD PUSH1 0xFF NOT AND SWAP1 SSTORE JUMPDEST POP POP POP POP POP JUMP JUMPDEST PUSH1 0xE DUP2 DUP2 SLOAD DUP2 LT PUSH2 0x84E JUMPI PUSH1 0x0 DUP1 REVERT JUMPDEST PUSH1 0x0 SWAP2 DUP3 MSTORE PUSH1 0x20 SWAP1 SWAP2 KECCAK256 ADD SLOAD PUSH1 0x1 PUSH1 0x1 PUSH1 0xA0 SHL SUB AND SWAP1 POP DUP2 JUMP JUMPDEST PUSH1 0x0 SLOAD PUSH1 0x1 PUSH1 0x1 PUSH1 0xA0 SHL SUB AND CALLER EQ PUSH2 0x892 JUMPI PUSH1 0x40 MLOAD PUSH3 0x461BCD PUSH1 0xE5 SHL DUP2 MSTORE PUSH1 0x4 ADD PUSH2 0x5B8 SWAP1 PUSH2 0x11A2 JUMP JUMPDEST PUSH2 0x89C PUSH1 0x0 PUSH2 0xFA4 JUMP JUMPDEST JUMP JUMPDEST PUSH1 0x0 SLOAD PUSH1 0x1 PUSH1 0x1 PUSH1 0xA0 SHL SUB AND CALLER EQ PUSH2 0x8C8 JUMPI PUSH1 0x40 MLOAD PUSH3 0x461BCD PUSH1 0xE5 SHL DUP2 MSTORE PUSH1 0x4 ADD PUSH2 0x5B8 SWAP1 PUSH2 0x11A2 JUMP JUMPDEST PUSH1 0x0 PUSH2 0x837 DUP3 PUSH2 0x613 JUMP JUMPDEST PUSH1 0x0 SLOAD PUSH1 0x1 PUSH1 0x1 PUSH1 0xA0 SHL SUB AND CALLER EQ PUSH2 0x8FD JUMPI PUSH1 0x40 MLOAD PUSH3 0x461BCD PUSH1 0xE5 SHL DUP2 MSTORE PUSH1 0x4 ADD PUSH2 0x5B8 SWAP1 PUSH2 0x11A2 JUMP JUMPDEST PUSH1 0x1 PUSH1 0x1 PUSH1 0xA0 SHL SUB SWAP2 DUP3 AND PUSH1 0x0 SWAP1 DUP2 MSTORE PUSH1 0x5 PUSH1 0x20 MSTORE PUSH1 0x40 SWAP1 KECCAK256 DUP1 SLOAD PUSH1 0x1 PUSH1 0x1 PUSH1 0xA0 SHL SUB NOT AND SWAP2 SWAP1 SWAP3 AND OR SWAP1 SSTORE JUMP JUMPDEST PUSH2 0x934 DUP3 PUSH2 0xC19 JUMP JUMPDEST PUSH2 0x9B0 JUMPI PUSH1 0x40 MLOAD PUSH3 0x461BCD PUSH1 0xE5 SHL DUP2 MSTORE PUSH1 0x20 PUSH1 0x4 DUP3 ADD MSTORE PUSH1 0x41 PUSH1 0x24 DUP3 ADD MSTORE PUSH32 0x5468697320746F6B656E206973206E6F7420737570706F727465642C20706C65 PUSH1 0x44 DUP3 ADD MSTORE PUSH32 0x61736520757365204D4154494320746F20706C61636520796F75722062657473 PUSH1 0x64 DUP3 ADD MSTORE PUSH1 0x21 PUSH1 0xF8 SHL PUSH1 0x84 DUP3 ADD MSTORE PUSH1 0xA4 ADD PUSH2 0x5B8 JUMP JUMPDEST PUSH1 0x0 DUP1 PUSH2 0x9BC DUP5 PUSH2 0xC83 JUMP JUMPDEST SWAP1 SWAP3 POP SWAP1 POP PUSH2 0x9CC DUP2 PUSH1 0xA PUSH2 0x12E9 JUMP JUMPDEST PUSH2 0x9D6 DUP4 DUP6 PUSH2 0x12F5 JUMP JUMPDEST PUSH2 0x9E0 SWAP2 SWAP1 PUSH2 0x1314 JUMP JUMPDEST CALLER PUSH1 0x0 SWAP1 DUP2 MSTORE PUSH1 0x3 PUSH1 0x20 SWAP1 DUP2 MSTORE PUSH1 0x40 DUP1 DUP4 KECCAK256 DUP5 SWAP1 SSTORE PUSH1 0x6 SWAP4 SWAP1 SWAP4 SSTORE PUSH1 0x4 SWAP1 DUP2 SWAP1 MSTORE SWAP1 DUP3 SWAP1 KECCAK256 DUP6 SWAP1 SSTORE PUSH1 0x7 DUP6 SWAP1 SSTORE SWAP1 MLOAD PUSH4 0x95EA7B3 PUSH1 0xE0 SHL DUP2 MSTORE ADDRESS SWAP2 DUP2 ADD SWAP2 SWAP1 SWAP2 MSTORE PUSH1 0x24 DUP2 ADD DUP5 SWAP1 MSTORE PUSH1 0x1 PUSH1 0x1 PUSH1 0xA0 SHL SUB DUP6 AND SWAP1 PUSH4 0x95EA7B3 SWAP1 PUSH1 0x44 ADD JUMPDEST PUSH1 0x20 PUSH1 0x40 MLOAD DUP1 DUP4 SUB DUP2 PUSH1 0x0 DUP8 GAS CALL ISZERO DUP1 ISZERO PUSH2 0xA5C JUMPI RETURNDATASIZE PUSH1 0x0 DUP1 RETURNDATACOPY RETURNDATASIZE PUSH1 0x0 REVERT JUMPDEST POP POP POP POP PUSH1 0x40 MLOAD RETURNDATASIZE PUSH1 0x1F NOT PUSH1 0x1F DUP3 ADD AND DUP3 ADD DUP1 PUSH1 0x40 MSTORE POP DUP2 ADD SWAP1 PUSH2 0x837 SWAP2 SWAP1 PUSH2 0x1336 JUMP JUMPDEST CALLER PUSH1 0x1 PUSH1 0x1 PUSH1 0xA0 SHL SUB PUSH32 0x0 AND EQ PUSH2 0xAF8 JUMPI PUSH1 0x40 MLOAD PUSH3 0x461BCD PUSH1 0xE5 SHL DUP2 MSTORE PUSH1 0x20 PUSH1 0x4 DUP3 ADD MSTORE PUSH1 0x1F PUSH1 0x24 DUP3 ADD MSTORE PUSH32 0x4F6E6C7920565246436F6F7264696E61746F722063616E2066756C66696C6C00 PUSH1 0x44 DUP3 ADD MSTORE PUSH1 0x64 ADD PUSH2 0x5B8 JUMP JUMPDEST PUSH2 0xB02 DUP3 DUP3 PUSH2 0xFF4 JUMP JUMPDEST POP POP JUMP JUMPDEST PUSH2 0xB0F DUP5 PUSH2 0xC19 JUMP JUMPDEST PUSH2 0xB7A JUMPI PUSH1 0x40 MLOAD PUSH3 0x461BCD PUSH1 0xE5 SHL DUP2 MSTORE PUSH1 0x20 PUSH1 0x4 DUP3 ADD MSTORE PUSH1 0x36 PUSH1 0x24 DUP3 ADD MSTORE PUSH32 0x5468697320746F6B656E206973206E6F7420737570706F727465642C20706C65 PUSH1 0x44 DUP3 ADD MSTORE PUSH22 0x61736520646F6E617465207573696E67204D41544943 PUSH1 0x50 SHL PUSH1 0x64 DUP3 ADD MSTORE PUSH1 0x84 ADD PUSH2 0x5B8 JUMP JUMPDEST PUSH1 0x40 MLOAD PUSH4 0x23B872DD PUSH1 0xE0 SHL DUP2 MSTORE PUSH1 0x1 PUSH1 0x1 PUSH1 0xA0 SHL SUB DUP5 DUP2 AND PUSH1 0x4 DUP4 ADD MSTORE DUP4 DUP2 AND PUSH1 0x24 DUP4 ADD MSTORE PUSH1 0x44 DUP3 ADD DUP4 SWAP1 MSTORE DUP6 AND SWAP1 PUSH4 0x23B872DD SWAP1 PUSH1 0x64 ADD PUSH2 0xA3D JUMP JUMPDEST PUSH1 0xD SLOAD PUSH1 0xFF AND ISZERO ISZERO PUSH1 0x1 EQ PUSH2 0xBCB JUMPI PUSH1 0x0 DUP1 REVERT JUMPDEST PUSH1 0x0 PUSH2 0xBDB PUSH1 0xC SLOAD PUSH1 0xA SLOAD PUSH2 0xE1F JUMP JUMPDEST SWAP1 POP PUSH32 0xE7E9D173875E49599C9DC06EA20FD1D8878525700B2711462F8379CCCDC637EB DUP2 PUSH1 0x40 MLOAD PUSH2 0xC0E SWAP2 DUP2 MSTORE PUSH1 0x20 ADD SWAP1 JUMP JUMPDEST PUSH1 0x40 MLOAD DUP1 SWAP2 SUB SWAP1 LOG1 POP JUMP JUMPDEST PUSH1 0x0 DUP1 JUMPDEST PUSH1 0xE SLOAD DUP2 LT ISZERO PUSH2 0xC7A JUMPI DUP3 PUSH1 0x1 PUSH1 0x1 PUSH1 0xA0 SHL SUB AND PUSH1 0xE DUP3 DUP2 SLOAD DUP2 LT PUSH2 0xC44 JUMPI PUSH2 0xC44 PUSH2 0x1358 JUMP JUMPDEST PUSH1 0x0 SWAP2 DUP3 MSTORE PUSH1 0x20 SWAP1 SWAP2 KECCAK256 ADD SLOAD PUSH1 0x1 PUSH1 0x1 PUSH1 0xA0 SHL SUB AND EQ ISZERO PUSH2 0xC68 JUMPI POP PUSH1 0x1 SWAP3 SWAP2 POP POP JUMP JUMPDEST DUP1 PUSH2 0xC72 DUP2 PUSH2 0x136E JUMP JUMPDEST SWAP2 POP POP PUSH2 0xC1D JUMP JUMPDEST POP PUSH1 0x0 SWAP3 SWAP2 POP POP JUMP JUMPDEST PUSH1 0x1 PUSH1 0x1 PUSH1 0xA0 SHL SUB DUP1 DUP3 AND PUSH1 0x0 SWAP1 DUP2 MSTORE PUSH1 0x5 PUSH1 0x20 MSTORE PUSH1 0x40 DUP1 DUP3 KECCAK256 SLOAD DUP2 MLOAD PUSH4 0x3FABE5A3 PUSH1 0xE2 SHL DUP2 MSTORE SWAP2 MLOAD SWAP3 SWAP4 DUP5 SWAP4 SWAP2 AND SWAP2 DUP3 SWAP2 DUP5 SWAP2 DUP4 SWAP2 PUSH4 0xFEAF968C SWAP2 PUSH1 0x4 DUP1 DUP3 ADD SWAP3 PUSH1 0xA0 SWAP3 SWAP1 SWAP2 SWAP1 DUP3 SWAP1 SUB ADD DUP2 DUP7 GAS STATICCALL ISZERO DUP1 ISZERO PUSH2 0xCE4 JUMPI RETURNDATASIZE PUSH1 0x0 DUP1 RETURNDATACOPY RETURNDATASIZE PUSH1 0x0 REVERT JUMPDEST POP POP POP POP PUSH1 0x40 MLOAD RETURNDATASIZE PUSH1 0x1F NOT PUSH1 0x1F DUP3 ADD AND DUP3 ADD DUP1 PUSH1 0x40 MSTORE POP DUP2 ADD SWAP1 PUSH2 0xD08 SWAP2 SWAP1 PUSH2 0x13A3 JUMP JUMPDEST POP POP POP SWAP2 POP POP PUSH1 0x0 DUP3 PUSH1 0x1 PUSH1 0x1 PUSH1 0xA0 SHL SUB AND PUSH4 0x313CE567 PUSH1 0x40 MLOAD DUP2 PUSH4 0xFFFFFFFF AND PUSH1 0xE0 SHL DUP2 MSTORE PUSH1 0x4 ADD PUSH1 0x20 PUSH1 0x40 MLOAD DUP1 DUP4 SUB DUP2 DUP7 GAS STATICCALL ISZERO DUP1 ISZERO PUSH2 0xD4E JUMPI RETURNDATASIZE PUSH1 0x0 DUP1 RETURNDATACOPY RETURNDATASIZE PUSH1 0x0 REVERT JUMPDEST POP POP POP POP PUSH1 0x40 MLOAD RETURNDATASIZE PUSH1 0x1F NOT PUSH1 0x1F DUP3 ADD AND DUP3 ADD DUP1 PUSH1 0x40 MSTORE POP DUP2 ADD SWAP1 PUSH2 0xD72 SWAP2 SWAP1 PUSH2 0x13F3 JUMP JUMPDEST SWAP2 SWAP8 PUSH1 0xFF SWAP1 SWAP3 AND SWAP7 POP SWAP1 SWAP5 POP POP POP POP POP JUMP JUMPDEST PUSH1 0x0 SLOAD PUSH1 0x1 PUSH1 0x1 PUSH1 0xA0 SHL SUB AND CALLER EQ PUSH2 0xDAE JUMPI PUSH1 0x40 MLOAD PUSH3 0x461BCD PUSH1 0xE5 SHL DUP2 MSTORE PUSH1 0x4 ADD PUSH2 0x5B8 SWAP1 PUSH2 0x11A2 JUMP JUMPDEST PUSH1 0x1 PUSH1 0x1 PUSH1 0xA0 SHL SUB DUP2 AND PUSH2 0xE13 JUMPI PUSH1 0x40 MLOAD PUSH3 0x461BCD PUSH1 0xE5 SHL DUP2 MSTORE PUSH1 0x20 PUSH1 0x4 DUP3 ADD MSTORE PUSH1 0x26 PUSH1 0x24 DUP3 ADD MSTORE PUSH32 0x4F776E61626C653A206E6577206F776E657220697320746865207A65726F2061 PUSH1 0x44 DUP3 ADD MSTORE PUSH6 0x646472657373 PUSH1 0xD0 SHL PUSH1 0x64 DUP3 ADD MSTORE PUSH1 0x84 ADD PUSH2 0x5B8 JUMP JUMPDEST PUSH2 0xE1C DUP2 PUSH2 0xFA4 JUMP JUMPDEST POP JUMP JUMPDEST PUSH1 0x0 PUSH32 0x0 PUSH1 0x1 PUSH1 0x1 PUSH1 0xA0 SHL SUB AND PUSH4 0x4000AEA0 PUSH32 0x0 DUP5 DUP7 PUSH1 0x0 PUSH1 0x40 MLOAD PUSH1 0x20 ADD PUSH2 0xE8F SWAP3 SWAP2 SWAP1 SWAP2 DUP3 MSTORE PUSH1 0x20 DUP3 ADD MSTORE PUSH1 0x40 ADD SWAP1 JUMP JUMPDEST PUSH1 0x40 MLOAD PUSH1 0x20 DUP2 DUP4 SUB SUB DUP2 MSTORE SWAP1 PUSH1 0x40 MSTORE PUSH1 0x40 MLOAD DUP5 PUSH4 0xFFFFFFFF AND PUSH1 0xE0 SHL DUP2 MSTORE PUSH1 0x4 ADD PUSH2 0xEBC SWAP4 SWAP3 SWAP2 SWAP1 PUSH2 0x1416 JUMP JUMPDEST PUSH1 0x20 PUSH1 0x40 MLOAD DUP1 DUP4 SUB DUP2 PUSH1 0x0 DUP8 GAS CALL ISZERO DUP1 ISZERO PUSH2 0xEDB JUMPI RETURNDATASIZE PUSH1 0x0 DUP1 RETURNDATACOPY RETURNDATASIZE PUSH1 0x0 REVERT JUMPDEST POP POP POP POP PUSH1 0x40 MLOAD RETURNDATASIZE PUSH1 0x1F NOT PUSH1 0x1F DUP3 ADD AND DUP3 ADD DUP1 PUSH1 0x40 MSTORE POP DUP2 ADD SWAP1 PUSH2 0xEFF SWAP2 SWAP1 PUSH2 0x1336 JUMP JUMPDEST POP PUSH1 0x0 DUP4 DUP2 MSTORE PUSH1 0x1 PUSH1 0x20 DUP2 DUP2 MSTORE PUSH1 0x40 DUP1 DUP5 KECCAK256 SLOAD DUP2 MLOAD DUP1 DUP5 ADD DUP10 SWAP1 MSTORE DUP1 DUP4 ADD DUP7 SWAP1 MSTORE ADDRESS PUSH1 0x60 DUP3 ADD MSTORE PUSH1 0x80 DUP1 DUP3 ADD DUP4 SWAP1 MSTORE DUP4 MLOAD DUP1 DUP4 SUB SWAP1 SWAP2 ADD DUP2 MSTORE PUSH1 0xA0 SWAP1 SWAP2 ADD SWAP1 SWAP3 MSTORE DUP2 MLOAD SWAP2 DUP4 ADD SWAP2 SWAP1 SWAP2 KECCAK256 SWAP4 DUP8 SWAP1 MSTORE SWAP1 DUP3 SWAP1 MSTORE PUSH2 0xF5A SWAP2 PUSH2 0x11ED JUMP JUMPDEST PUSH1 0x0 DUP6 DUP2 MSTORE PUSH1 0x1 PUSH1 0x20 MSTORE PUSH1 0x40 SWAP1 KECCAK256 SSTORE PUSH2 0xF9A DUP5 DUP3 PUSH1 0x40 DUP1 MLOAD PUSH1 0x20 DUP1 DUP3 ADD SWAP5 SWAP1 SWAP5 MSTORE DUP1 DUP3 ADD SWAP3 SWAP1 SWAP3 MSTORE DUP1 MLOAD DUP1 DUP4 SUB DUP3 ADD DUP2 MSTORE PUSH1 0x60 SWAP1 SWAP3 ADD SWAP1 MSTORE DUP1 MLOAD SWAP2 ADD KECCAK256 SWAP1 JUMP JUMPDEST SWAP2 POP POP JUMPDEST SWAP3 SWAP2 POP POP JUMP JUMPDEST PUSH1 0x0 DUP1 SLOAD PUSH1 0x1 PUSH1 0x1 PUSH1 0xA0 SHL SUB DUP4 DUP2 AND PUSH1 0x1 PUSH1 0x1 PUSH1 0xA0 SHL SUB NOT DUP4 AND DUP2 OR DUP5 SSTORE PUSH1 0x40 MLOAD SWAP2 SWAP1 SWAP3 AND SWAP3 DUP4 SWAP2 PUSH32 0x8BE0079C531659141344CD1FD0A4F28419497F9722A3DAAFE3B4186F6B6457E0 SWAP2 SWAP1 LOG3 POP POP JUMP JUMPDEST PUSH1 0x0 DUP2 GT PUSH2 0x1044 JUMPI PUSH1 0x40 MLOAD PUSH3 0x461BCD PUSH1 0xE5 SHL DUP2 MSTORE PUSH1 0x20 PUSH1 0x4 DUP3 ADD MSTORE PUSH1 0x18 PUSH1 0x24 DUP3 ADD MSTORE PUSH32 0x72616E646F6D206E756D626572206E6F7420666F756E642E0000000000000000 PUSH1 0x44 DUP3 ADD MSTORE PUSH1 0x64 ADD PUSH2 0x5B8 JUMP JUMPDEST PUSH1 0xB SSTORE POP JUMP JUMPDEST DUP1 CALLDATALOAD PUSH1 0x1 PUSH1 0x1 PUSH1 0xA0 SHL SUB DUP2 AND DUP2 EQ PUSH2 0x63E JUMPI PUSH1 0x0 DUP1 REVERT JUMPDEST PUSH1 0x0 PUSH1 0x20 DUP3 DUP5 SUB SLT ISZERO PUSH2 0x1073 JUMPI PUSH1 0x0 DUP1 REVERT JUMPDEST PUSH2 0x107C DUP3 PUSH2 0x104A JUMP JUMPDEST SWAP4 SWAP3 POP POP POP JUMP JUMPDEST PUSH1 0x0 PUSH1 0x20 DUP3 DUP5 SUB SLT ISZERO PUSH2 0x1095 JUMPI PUSH1 0x0 DUP1 REVERT JUMPDEST POP CALLDATALOAD SWAP2 SWAP1 POP JUMP JUMPDEST PUSH1 0x0 DUP1 PUSH1 0x40 DUP4 DUP6 SUB SLT ISZERO PUSH2 0x10AF JUMPI PUSH1 0x0 DUP1 REVERT JUMPDEST PUSH2 0x10B8 DUP4 PUSH2 0x104A JUMP JUMPDEST SWAP5 PUSH1 0x20 SWAP4 SWAP1 SWAP4 ADD CALLDATALOAD SWAP4 POP POP POP JUMP JUMPDEST PUSH1 0x0 DUP1 PUSH1 0x0 PUSH1 0x60 DUP5 DUP7 SUB SLT ISZERO PUSH2 0x10DB JUMPI PUSH1 0x0 DUP1 REVERT JUMPDEST PUSH2 0x10E4 DUP5 PUSH2 0x104A JUMP JUMPDEST SWAP3 POP PUSH2 0x10F2 PUSH1 0x20 DUP6 ADD PUSH2 0x104A JUMP JUMPDEST SWAP2 POP PUSH1 0x40 DUP5 ADD CALLDATALOAD SWAP1 POP SWAP3 POP SWAP3 POP SWAP3 JUMP JUMPDEST PUSH1 0x0 DUP1 PUSH1 0x40 DUP4 DUP6 SUB SLT ISZERO PUSH2 0x1115 JUMPI PUSH1 0x0 DUP1 REVERT JUMPDEST PUSH2 0x111E DUP4 PUSH2 0x104A JUMP JUMPDEST SWAP2 POP PUSH2 0x112C PUSH1 0x20 DUP5 ADD PUSH2 0x104A JUMP JUMPDEST SWAP1 POP SWAP3 POP SWAP3 SWAP1 POP JUMP JUMPDEST PUSH1 0x0 DUP1 PUSH1 0x40 DUP4 DUP6 SUB SLT ISZERO PUSH2 0x1148 JUMPI PUSH1 0x0 DUP1 REVERT JUMPDEST POP POP DUP1 CALLDATALOAD SWAP3 PUSH1 0x20 SWAP1 SWAP2 ADD CALLDATALOAD SWAP2 POP JUMP JUMPDEST PUSH1 0x0 DUP1 PUSH1 0x0 DUP1 PUSH1 0x80 DUP6 DUP8 SUB SLT ISZERO PUSH2 0x116D JUMPI PUSH1 0x0 DUP1 REVERT JUMPDEST PUSH2 0x1176 DUP6 PUSH2 0x104A JUMP JUMPDEST SWAP4 POP PUSH2 0x1184 PUSH1 0x20 DUP7 ADD PUSH2 0x104A JUMP JUMPDEST SWAP3 POP PUSH2 0x1192 PUSH1 0x40 DUP7 ADD PUSH2 0x104A JUMP JUMPDEST SWAP4 SWAP7 SWAP3 SWAP6 POP SWAP3 SWAP4 PUSH1 0x60 ADD CALLDATALOAD SWAP3 POP POP JUMP JUMPDEST PUSH1 0x20 DUP1 DUP3 MSTORE DUP2 DUP2 ADD MSTORE PUSH32 0x4F776E61626C653A2063616C6C6572206973206E6F7420746865206F776E6572 PUSH1 0x40 DUP3 ADD MSTORE PUSH1 0x60 ADD SWAP1 JUMP JUMPDEST PUSH4 0x4E487B71 PUSH1 0xE0 SHL PUSH1 0x0 MSTORE PUSH1 0x11 PUSH1 0x4 MSTORE PUSH1 0x24 PUSH1 0x0 REVERT JUMPDEST PUSH1 0x0 DUP3 NOT DUP3 GT ISZERO PUSH2 0x1200 JUMPI PUSH2 0x1200 PUSH2 0x11D7 JUMP JUMPDEST POP ADD SWAP1 JUMP JUMPDEST PUSH1 0x1 DUP2 DUP2 JUMPDEST DUP1 DUP6 GT ISZERO PUSH2 0x1240 JUMPI DUP2 PUSH1 0x0 NOT DIV DUP3 GT ISZERO PUSH2 0x1226 JUMPI PUSH2 0x1226 PUSH2 0x11D7 JUMP JUMPDEST DUP1 DUP6 AND ISZERO PUSH2 0x1233 JUMPI SWAP2 DUP2 MUL SWAP2 JUMPDEST SWAP4 DUP5 SHR SWAP4 SWAP1 DUP1 MUL SWAP1 PUSH2 0x120A JUMP JUMPDEST POP SWAP3 POP SWAP3 SWAP1 POP JUMP JUMPDEST PUSH1 0x0 DUP3 PUSH2 0x1257 JUMPI POP PUSH1 0x1 PUSH2 0xF9E JUMP JUMPDEST DUP2 PUSH2 0x1264 JUMPI POP PUSH1 0x0 PUSH2 0xF9E JUMP JUMPDEST DUP2 PUSH1 0x1 DUP2 EQ PUSH2 0x127A JUMPI PUSH1 0x2 DUP2 EQ PUSH2 0x1284 JUMPI PUSH2 0x12A0 JUMP JUMPDEST PUSH1 0x1 SWAP2 POP POP PUSH2 0xF9E JUMP JUMPDEST PUSH1 0xFF DUP5 GT ISZERO PUSH2 0x1295 JUMPI PUSH2 0x1295 PUSH2 0x11D7 JUMP JUMPDEST POP POP PUSH1 0x1 DUP3 SHL PUSH2 0xF9E JUMP JUMPDEST POP PUSH1 0x20 DUP4 LT PUSH2 0x133 DUP4 LT AND PUSH1 0x4E DUP5 LT PUSH1 0xB DUP5 LT AND OR ISZERO PUSH2 0x12C3 JUMPI POP DUP2 DUP2 EXP PUSH2 0xF9E JUMP JUMPDEST PUSH2 0x12CD DUP4 DUP4 PUSH2 0x1205 JUMP JUMPDEST DUP1 PUSH1 0x0 NOT DIV DUP3 GT ISZERO PUSH2 0x12E1 JUMPI PUSH2 0x12E1 PUSH2 0x11D7 JUMP JUMPDEST MUL SWAP4 SWAP3 POP POP POP JUMP JUMPDEST PUSH1 0x0 PUSH2 0x107C DUP4 DUP4 PUSH2 0x1248 JUMP JUMPDEST PUSH1 0x0 DUP2 PUSH1 0x0 NOT DIV DUP4 GT DUP3 ISZERO ISZERO AND ISZERO PUSH2 0x130F JUMPI PUSH2 0x130F PUSH2 0x11D7 JUMP JUMPDEST POP MUL SWAP1 JUMP JUMPDEST PUSH1 0x0 DUP3 PUSH2 0x1331 JUMPI PUSH4 0x4E487B71 PUSH1 0xE0 SHL PUSH1 0x0 MSTORE PUSH1 0x12 PUSH1 0x4 MSTORE PUSH1 0x24 PUSH1 0x0 REVERT JUMPDEST POP DIV SWAP1 JUMP JUMPDEST PUSH1 0x0 PUSH1 0x20 DUP3 DUP5 SUB SLT ISZERO PUSH2 0x1348 JUMPI PUSH1 0x0 DUP1 REVERT JUMPDEST DUP2 MLOAD DUP1 ISZERO ISZERO DUP2 EQ PUSH2 0x107C JUMPI PUSH1 0x0 DUP1 REVERT JUMPDEST PUSH4 0x4E487B71 PUSH1 0xE0 SHL PUSH1 0x0 MSTORE PUSH1 0x32 PUSH1 0x4 MSTORE PUSH1 0x24 PUSH1 0x0 REVERT JUMPDEST PUSH1 0x0 PUSH1 0x0 NOT DUP3 EQ ISZERO PUSH2 0x1382 JUMPI PUSH2 0x1382 PUSH2 0x11D7 JUMP JUMPDEST POP PUSH1 0x1 ADD SWAP1 JUMP JUMPDEST DUP1 MLOAD PUSH10 0xFFFFFFFFFFFFFFFFFFFF DUP2 AND DUP2 EQ PUSH2 0x63E JUMPI PUSH1 0x0 DUP1 REVERT JUMPDEST PUSH1 0x0 DUP1 PUSH1 0x0 DUP1 PUSH1 0x0 PUSH1 0xA0 DUP7 DUP9 SUB SLT ISZERO PUSH2 0x13BB JUMPI PUSH1 0x0 DUP1 REVERT JUMPDEST PUSH2 0x13C4 DUP7 PUSH2 0x1389 JUMP JUMPDEST SWAP5 POP PUSH1 0x20 DUP7 ADD MLOAD SWAP4 POP PUSH1 0x40 DUP7 ADD MLOAD SWAP3 POP PUSH1 0x60 DUP7 ADD MLOAD SWAP2 POP PUSH2 0x13E7 PUSH1 0x80 DUP8 ADD PUSH2 0x1389 JUMP JUMPDEST SWAP1 POP SWAP3 SWAP6 POP SWAP3 SWAP6 SWAP1 SWAP4 POP JUMP JUMPDEST PUSH1 0x0 PUSH1 0x20 DUP3 DUP5 SUB SLT ISZERO PUSH2 0x1405 JUMPI PUSH1 0x0 DUP1 REVERT JUMPDEST DUP2 MLOAD PUSH1 0xFF DUP2 AND DUP2 EQ PUSH2 0x107C JUMPI PUSH1 0x0 DUP1 REVERT JUMPDEST PUSH1 0x1 DUP1 PUSH1 0xA0 SHL SUB DUP5 AND DUP2 MSTORE PUSH1 0x0 PUSH1 0x20 DUP5 DUP2 DUP5 ADD MSTORE PUSH1 0x60 PUSH1 0x40 DUP5 ADD MSTORE DUP4 MLOAD DUP1 PUSH1 0x60 DUP6 ADD MSTORE PUSH1 0x0 JUMPDEST DUP2 DUP2 LT ISZERO PUSH2 0x1458 JUMPI DUP6 DUP2 ADD DUP4 ADD MLOAD DUP6 DUP3 ADD PUSH1 0x80 ADD MSTORE DUP3 ADD PUSH2 0x143C JUMP JUMPDEST DUP2 DUP2 GT ISZERO PUSH2 0x146A JUMPI PUSH1 0x0 PUSH1 0x80 DUP4 DUP8 ADD ADD MSTORE JUMPDEST POP PUSH1 0x1F ADD PUSH1 0x1F NOT AND SWAP3 SWAP1 SWAP3 ADD PUSH1 0x80 ADD SWAP6 SWAP5 POP POP POP POP POP JUMP INVALID LOG2 PUSH5 0x6970667358 0x22 SLT KECCAK256 DUP2 SWAP12 0xCA 0xB1 CREATE2 GT 0xEC PC MSTORE8 LOG3 ISZERO SELFDESTRUCT DUP4 0xB5 0xFB CREATE2 DUP8 MUL DUP11 0x4A 0xEC PUSH3 0x685142 BYTE PUSH6 0xFDC26DFA9064 PUSH20 0x6F6C634300080A00330000000000000000000000 ","sha1":"202aa5d5cef0e9c5ea0b4a11a32140d24a3fd877","source":"//SPDX-License-Identifier: MIT\npragma solidity ^0.8.0;\n\nimport \"@openzeppelin/contracts/access/Ownable.sol\";\nimport \"@openzeppelin/contracts/token/ERC20/IERC20.sol\";\nimport \"@chainlink/contracts/src/v0.8/interfaces/AggregatorV3Interface.sol\";\nimport \"@chainlink/contracts/src/v0.8/VRFConsumerBase.sol\";\n\n/*  \n\n     TO DISCUSS:\n\n\n        Spin the wheel =>\n        Receive/Calculate Outcome --- possibly from another contract?\n        send NFT to player --- possibly from another contract?\n\n        How to calculate player reward?\n\n        How to calculate bet limit?\n\n        Integration with front end:\n            Can the front end successfully approve through \"approvePlayerAllowancePerSpin\"\n            and call donate to make the transfer OR \n            should the front end just call the ERC20 approve and transferFrom function??\n\n    \n    TODO:\n\n    If player wins: 'calculatePlayerReward'\n\n    'calculateBetLimit' based on the amount of tokens we have to repay winning players.\n\n\n*/\n\ncontract CharityCasino is Ownable, VRFConsumerBase {\n    mapping(address => uint256) public playerTotalAmountSpent;\n    mapping(address => uint256) public playerAllowanceUsd;\n    mapping(address => uint256) public playerAllowanceMtc;\n    mapping(address => address) public tokenPriceFeedMapping;\n    uint256 usd_allowance;\n    uint256 token_allowance;\n    uint256 bet_amount;\n    uint256 public SPINNING_THRESHOLD = 50; // Usd\n    uint256 public fee;\n    uint256 public randomness;\n    bytes32 public keyhash;\n    bool public wheel_approval = false;\n    bool public playerWins = false;\n    address[] public allowedTokens;\n    address public prizePool;\n    address public link;\n    event RequestRandomness(bytes32 requestId);\n\n    constructor(\n        address _maticAddress,\n        address _maticPriceFeed,\n        address _vrfCoordinator,\n        address _link,\n        uint256 _fee,\n        bytes32 _keyhash\n    ) public VRFConsumerBase(_vrfCoordinator, _link) {\n        fee = _fee;\n        keyhash = _keyhash;\n        allowedTokens.push(_maticAddress);\n        tokenPriceFeedMapping[_maticAddress] = _maticPriceFeed;\n        prizePool = payable(address(this));\n        link = _link;\n    }\n\n    function calculateBetLimit(address _token) public view returns (uint256) {\n        // calcualte bet limit based on the amount of tokens we have to repay winning players.\n        // -> DISPLAY bet limit ON FRONTEND\n        // calculate betlimit in tokens\n        //calculate bet limit in dollars\n        // update bet limit variable\n        return 100;\n    }\n\n    function approvePlayerAllowancePerSpin(address _token, uint256 _amount)\n        public\n    {\n        // Check to see if the token being updated is allowed\n        require(\n            tokenIsAllowed(_token),\n            \"This token is not supported, please use MATIC to place your bets!\"\n        );\n\n        // get token value in dollars:\n        (uint256 price, uint256 decimals) = getTokenValue(_token);\n\n        playerAllowanceUsd[msg.sender] = (_amount * price) / (10**decimals); // DISPLAY playerAllowanceUsd ON FRONTEND\n        usd_allowance = playerAllowanceUsd[msg.sender];\n\n        //Update matic allowance mappping\n        playerAllowanceMtc[msg.sender] = _amount;\n        token_allowance = _amount;\n\n        // call approve function and set it equal to token_allowance;\n        IERC20(_token).approve(address(this), _amount);\n    }\n\n    // call on front end when slot machine starts\n    function makeBet(address _token, uint256 _amount) public payable {\n        uint256 max_allowance = playerAllowanceUsd[msg.sender];\n        uint256 bet_limit = calculateBetLimit(_token);\n        require(_amount > 0, \"Your bet must be higher than 0\");\n        require(\n            _amount < bet_limit,\n            \"Your bet reward could exceed the total prize, please bet according to the betting limit\" //\n        );\n        require(\n            _amount <= max_allowance,\n            \"You cannot bet higher than your bet allowance amount!\"\n        );\n        bytes32 requestId = requestRandomness(keyhash, fee);\n        emit RequestRandomness(requestId);\n\n        playerTotalAmountSpent[msg.sender] =\n            playerTotalAmountSpent[msg.sender] +\n            _amount;\n        if (playerTotalAmountSpent[msg.sender] == SPINNING_THRESHOLD) {\n            wheel_approval = false;\n        }\n    }\n\n    // if player lost:\n    // takes input in MATIC\n    function donate(\n        address _token,\n        address _playerAddress,\n        address _charityAddress,\n        uint256 _amount\n    ) public {\n        // send player bet amount to charity -- maybe keep a portion to increase prize pool???\n        // if testnet pay my account, if mainnet/polygon pay actual charity\n        require(\n            tokenIsAllowed(_token),\n            \"This token is not supported, please donate using MATIC\"\n        );\n\n        IERC20(_token).transferFrom(_playerAddress, _charityAddress, _amount);\n    }\n\n    // if player won:\n    function payPlayer(\n        address _token,\n        address _playerAddress,\n        uint256 _amount\n    ) public onlyOwner {\n        uint256 player_reward = calculatePlayerReward(_amount);\n        // IERC20(_token).transfer(_playerAddress, player_reward);\n    }\n\n    function calculatePlayerReward(uint256 _amount)\n        public\n        onlyOwner\n        returns (uint256 reward)\n    {}\n\n    function spinTheWheel() public {\n        require(wheel_approval == true);\n        bytes32 requestId = requestRandomness(keyhash, fee);\n        emit RequestRandomness(requestId);\n\n        // Receive/Calculate Outcome --- possibly from another contract\n        // send NFT to player --- possibly from another contract\n\n        // reset approval to false\n        wheel_approval == false;\n    }\n\n    // Add button to front end for donations to the prize pool. Pass {msg.value} = to donation amount\n    function IncreasePrizePool() public payable {\n        //increases prize pool of given token. Serves as a donation portal for the casino itself.\n    }\n\n    function setPriceFeedContract(address _token, address _priceFeed)\n        public\n        onlyOwner\n    {\n        // set price feed address to whens adding new tokens or changing existing ones.\n        tokenPriceFeedMapping[_token] = _priceFeed;\n    }\n\n    function getTokenValue(address _token)\n        public\n        view\n        returns (uint256, uint256)\n    {\n        address priceFeedAddress = tokenPriceFeedMapping[_token];\n        AggregatorV3Interface priceFeed = AggregatorV3Interface(\n            priceFeedAddress\n        );\n        (, int256 price, , , ) = priceFeed.latestRoundData();\n        uint256 decimals = uint256(priceFeed.decimals());\n        return (uint256(price), decimals);\n    }\n\n    function tokenIsAllowed(address _token) public returns (bool) {\n        // how to loop trough mappings/arrays efficiently without excessive gas cost??\n        for (\n            uint256 allowedTokensIndex = 0;\n            allowedTokensIndex < allowedTokens.length;\n            allowedTokensIndex++\n        ) {\n            if (allowedTokens[allowedTokensIndex] == _token) {\n                return true;\n            }\n        }\n        return false;\n    }\n\n    function addAllowedTokens(address _token) public onlyOwner {\n        allowedTokens.push(_token);\n    }\n\n    function fulfillRandomness(bytes32 _requestId, uint256 _randomness)\n        internal\n        override\n    {\n        require(_randomness > 0, \"random number not found.\");\n        randomness = _randomness;\n    }\n\n    receive() external payable {}\n}\n","sourcePath":"contracts/CharityCasino.sol","type":"contract","deployment":{"address":"0x2a30D0d27ab46e74Eb7c17F69CA8be82EEBD4074","chainid":"80001","blockHeight":24648979}}